:020000040000fa
:080000000002040000000000f2
:020000040000fa
:040008004c060000a2
:020000040000fa
:04000c004c0600009e
:020000040000fa
:040010004c0600009a
:020000040000fa
:040014004c06000096
:020000040000fa
:040018004c06000092
:020000040000fa
:04001c004c0600008e
:020000040000fa
:040020004c0600008a
:020000040000fa
:040024004c06000086
:020000040000fa
:040028004c04000084
:020000040000fa
:04002c004c0600007e
:020000040000fa
:040030004c0600007a
:020000040000fa
:040034004c06000076
:020000040000fa
:040038004c06000072
:020000040000fa
:04003c004c0600006e
:020000040000fa
:040040004c0600006a
:020000040000fa
:04004400a60300000f
:020000040000fa
:040048008804000028
:020000040000fa
:04004c004c0600005e
:020000040000fa
:040050004c0600005a
:020000040000fa
:04005400c8020000de
:020000040000fa
:040058004c06000052
:020000040000fa
:04005c004c0600004e
:020000040000fa
:040060004c0600004a
:020000040000fa
:040064004c06000046
:020000040000fa
:040068004c06000042
:020000040000fa
:04006c004c0600003e
:020000040000fa
:040070004c0600003a
:020000040000fa
:040074004c06000036
:020000040000fa
:04007800300500004f
:020000040000fa
:04007c004c0600002e
:020000040000fa
:040080004c0600002a
:020000040000fa
:040084004c06000026
:020000040000fa
:040088004c06000022
:020000040000fa
:04008c004c0600001e
:020000040000fa
:040090004c0600001a
:020000040000fa
:040094006c050000f7
:020000040000fa
:040098004c06000012
:020000040000fa
:04009c00100600004a
:020000040000fa
:0400a0003003000029
:020000040000fa
:0400a4004c06000006
:020000040000fa
:0400a8004c06000002
:020000040000fa
:0400ac004c060000fe
:020000040000fa
:0400b0004c060000fa
:020000040000fa
:0400b4004c060000f6
:020000040000fa
:0400b8004c060000f2
:020000040000fa
:0400bc004c060000ee
:020000040000fa
:0400c0004c060000ea
:020000040000fa
:0400c4004c060000e6
:020000040000fa
:0400c8004c060000e2
:020000040000fa
:0400cc004c060000de
:020000040000fa
:0400d0004c060000da
:020000040000fa
:0400d4004c060000d6
:020000040000fa
:0400d8004c060000d2
:020000040000fa
:0400dc004c060000ce
:020000040000fa
:0400e0004c060000ca
:020000040000fa
:0400e4004c060000c6
:020000040000fa
:0400e8004c060000c2
:020000040000fa
:0400ec004c060000be
:020000040000fa
:0400f0004c060000ba
:020000040000fa
:0400f4004c060000b6
:020000040000fa
:0400f8004c060000b2
:020000040000fa
:0400fc004c060000ae
:020000040000fa
:040100004c060000a9
:020000040000fa
:040104004c060000a5
:020000040000fa
:040108004c060000a1
:020000040000fa
:04010c004c0600009d
:020000040000fa
:040110004c06000099
:020000040000fa
:040114004c06000095
:020000040000fa
:040118004c06000091
:020000040000fa
:04011c004c0600008d
:020000040000fa
:040120004c06000089
:020000040000fa
:040124004c06000085
:020000040000fa
:040128004c06000081
:020000040000fa
:04012c004c0600007d
:020000040000fa
:040130004c06000079
:020000040000fa
:040134004c06000075
:020000040000fa
:040138004c06000071
:020000040000fa
:04013c004c0600006d
:020000040000fa
:040140004c06000069
:020000040000fa
:040144004c06000065
:020000040000fa
:040148004c06000061
:020000040000fa
:04014c004c0600005d
:020000040000fa
:040150004c06000059
:020000040000fa
:040154004c06000055
:020000040000fa
:040158004c06000051
:020000040000fa
:04015c004c0600004d
:020000040000fa
:040160004c06000049
:020000040000fa
:040164004c06000045
:020000040000fa
:040208004c060000a0
:020000040000fa
:04020c004c0600009c
:020000040000fa
:040210004c06000098
:020000040000fa
:040214004c06000094
:020000040000fa
:040218004c06000090
:020000040000fa
:04021c004c0600008c
:020000040000fa
:040220004c06000088
:020000040000fa
:040224004c06000084
:020000040000fa
:040228004c06000080
:020000040000fa
:04022c004c0600007c
:020000040000fa
:040230004c06000078
:020000040000fa
:040234004c06000074
:020000040000fa
:040238004c06000070
:020000040000fa
:04023c004c0600006c
:020000040000fa
:040240004c06000068
:020000040000fa
:040244004c06000064
:020000040000fa
:040248004c06000060
:020000040000fa
:04024c004c0600005c
:020000040000fa
:040250004c06000058
:020000040000fa
:040254004c06000054
:020000040000fa
:040258004c06000050
:020000040000fa
:04025c004c0600004c
:020000040000fa
:040260004c06000048
:020000040000fa
:040264004c06000044
:020000040000fa
:040268004c06000040
:020000040000fa
:04026c004c0600003c
:020000040000fa
:040270004c06000038
:020000040000fa
:040274004c06000034
:020000040000fa
:040278004c06000030
:020000040000fa
:04027c004c0600002c
:020000040000fa
:040280004c06000028
:020000040000fa
:040284004c06000024
:020000040000fa
:040288004c06000020
:020000040000fa
:04028c004c0600001c
:020000040000fa
:040290004c06000018
:020000040000fa
:040294004c06000014
:020000040000fa
:040298004c06000010
:020000040000fa
:04029c004c0600000c
:020000040000fa
:0402a0004c06000008
:020000040000fa
:0402a4004c06000004
:020000040000fa
:0402a8004c06000000
:020000040000fa
:0402ac004c060000fc
:020000040000fa
:0402b0004c060000f8
:020000040000fa
:0402b4004c060000f4
:020000040000fa
:0402b8004c060000f0
:020000040000fa
:0402bc004c060000ec
:020000040000fa
:0402c0004c060000e8
:020000040000fa
:0402c4004c060000e4
:020000040000fa
:0402c8004c060000e0
:020000040000fa
:0402cc004c060000dc
:020000040000fa
:0402d0004c060000d8
:020000040000fa
:0402d4004c060000d4
:020000040000fa
:0402d8004c060000d0
:020000040000fa
:0402dc004c060000cc
:020000040000fa
:0402e0004c060000c8
:020000040000fa
:0402e4004c060000c4
:020000040000fa
:0402e8004c060000c0
:020000040000fa
:0402ec004c060000bc
:020000040000fa
:0402f0004c060000b8
:020000040000fa
:0402f4004c060000b4
:020000040000fa
:0402f8004c060000b0
:020000040000fa
:0402fc004c060000ac
:020000040000fa
:040300004c060000a7
:020000040000fa
:040304004c060000a3
:020000040000fa
:040308004c0600009f
:020000040000fa
:04030c004c0600009b
:020000040000fa
:040310004c06000097
:020000040000fa
:040314004c06000093
:020000040000fa
:040318004c0600008f
:020000040000fa
:04031c004c0600008b
:020000040000fa
:040320004c06000087
:020000040000fa
:040324004c06000083
:020000040000fa
:040328004c0600007f
:020000040000fa
:04032c004c0600007b
:020000040000fa
:040330004c06000077
:020000040000fa
:040334004c06000073
:020000040000fa
:040338004c0600006f
:020000040000fa
:04033c004c0600006b
:020000040000fa
:040340004c06000067
:020000040000fa
:040344004c06000063
:020000040000fa
:040348004c0600005f
:020000040000fa
:04034c004c0600005b
:020000040000fa
:040350004c06000057
:020000040000fa
:040354004c06000053
:020000040000fa
:040358004c0600004f
:020000040000fa
:04035c004c0600004b
:020000040000fa
:040360004c06000047
:020000040000fa
:040364004c06000043
:020000040000fa
:10040000ef8620000e7f24000e018800000000000f
:10041000000020000000e000020032000001200087
:1004200020028800140007001d0207000000e00001
:1004300003003a0000f02000010020000200370015
:100440000000200001002000810f70000100320038
:1004500014000700000020000000e000020032004d
:1004600000000200000000009006020000000000f2
:100470000040da000000fe004440a9000000200017
:100480000000e0000300320000002000a00188000e
:100490004440a800000006008a1f78008b1f7800e7
:1004a0000000060091018800800478000000eb0045
:1004b0001a003700e284440032a0b4009905ba0063
:1004c000e284440032a0b4009906ba00e2844400f9
:1004d00032a0b4000006eb00476fde00fd07b2005b
:1004e000636ce10003003a00ebff07000000eb0043
:1004f0000a003700606ce10004003a00005deb0088
:100500008b05e900fdff3e00040037006168e10053
:10051000010032000086eb000b00070019c7ba008b
:100520001905ba000e04e00003003a000a00e000da
:10053000e0ff3a0000000600fe07b2009e018800be
:100540008a047800f5ff3700395dba008b05e900b1
:100550000c003200295dba008b05e900080032006a
:100560000c00e00003003a00e284440032a0b40032
:10057000f5ff370019ddba008b05e900faff3a00f4
:100580008904e800e184440032a0b40000000600c1
:100590003600f800809fbe00829fbe00849fbe0090
:1005a000869fbe000200fa0031118000010f780022
:1005b0001e007800c1032000810f500004003200ab
:1005c000e1032000810f5000050032000e003700cb
:1005d0000028ef001000200020428800180037009b
:1005e00000408000104088000040800061842000ae
:1005f0000041eb00827078004428ef0010002000da
:10060000204088000e003700204280000000e000fb
:1006100009003200004080009e007800014178000f
:100620006184200082707800004080000000e800b3
:10063000004088000200370080c5b300670507004e
:100640008560a9000080fa004f03be004f02be0083
:100650004f01be004f00be003600f900004006000a
:100660003600f800809fbe00829fbe00849fbe00bf
:10067000869fbe000200fa00b1118000010f7800d1
:10068000100320009e007800808f50000800320088
:10069000200320009e007800808f5000040032006c
:1006a000300320009e007800808f500006003a0042
:1006b0001e00780000407800e34040006086200083
:1006c0000148780019003700d00420009e0078000f
:1006d000808f500004003a006086200031c5b300ce
:1006e00001487800110037001e007800ea0f500022
:1006f0000a003a001e0078008040780080862000c2
:1007000001487800908620008040eb000148780086
:10071000608620003d050700040037001e007800b9
:1007200080407800708620000148780087c0a900ca
:100730000080fa004f03be004f02be004f01be0012
:100740004f00be003600f900004006003600f800f9
:10075000809fbe00829fbe00849fbe00869fbe0019
:100760000000fa00504080000000e000420032002b
:1007700020168000004078006140600000c0ea0060
:10078000614060000080fb00610060002116800075
:100790000100a10001007000201688006016800092
:1007a0004900de006140600000c0ea006140600076
:1007b0000080fb00610060004900dd0061168000e0
:1007c0000190a10001007000601688009040800038
:1007d000a140800061005000e080580090408800f7
:1007e000a140880061168000001020000080600099
:1007f0000000e00006003a00b0408000c1408000e8
:1008000061004000e0804800b0408800c14088009e
:100810006116800000102000008060000000e000f1
:1008200006003200b0408000c140800061005000ee
:10083000e0805800b0408800c140880090408000af
:10084000a1408000e00f5000e08f58000a003a00fd
:100850000a28ef00c402a900a086200011c3b3003b
:1008600001487800b086200021c5b3000148780017
:10087000a0862000e504070084e0a9000080fa00bb
:100880004f03be004f02be004f01be004f00be002e
:100890003600f900004006003600f800809fbe00d8
:1008a000829fbe00849fbe00869fbe000000fa00ab
:1008b0001628ef001828ef00604080000000e000dc
:1008c0000b0032000c28ef000a28ef00c402a90038
:1008d000a086200011c3b30001487800b086200034
:1008e00081c4b30001487800a0862000c704070037
:1008f0008400a9000080fa004f03be004f02be0032
:100900004f01be004f00be003600f9000040060057
:100910003600f800809fbe00829fbe00849fbe000c
:10092000869fbe000000fa00d04080000000e0007a
:1009300043003200201680000000d10061406000ba
:1009400000c0ea00614060000080fb0061006000c0
:1009500000004000211680000110a100010070007d
:1009600020168800601680004d00de0061406000a7
:1009700000c0ea00614060000080fb006100600090
:100980004d00dd006116800001d0a1000100700063
:1009900060168800104180002141800061005000f5
:1009a000e0805800104188002141880061168000d5
:1009b00000002100008060000000e00006003a0016
:1009c000304180004141800061004000e0804800eb
:1009d00030418800414188006116800000002100fc
:1009e000008060000000e00006003200304180001e
:1009f0004141800061005000e08058003041880093
:100a0000414188001041800021418000e00f5000ea
:100a1000e08f58000a003a001a28ef00c422a9000b
:100a2000a086200021c3b30001487800b0862000d2
:100a300021c5b30001487800a08620007304070098
:100a40008500a9000080fa004f03be004f02be00df
:100a50004f01be004f00be003600f9000040060006
:100a60003600f800809fbe00829fbe00849fbe00bb
:100a7000869fbe000000fa002628ef002828ef001d
:100a8000e04080000000e0000b0032001c28ef0076
:100a90001a28ef00c422a900a086200021c3b300b9
:100aa00001487800b086200081c4b3000148780076
:100ab000a0862000550407008680a9000080fa0067
:100ac0004f03be004f02be004f01be004f00be00ec
:100ad0003600f900004006003600f800809fbe0096
:100ae000829fbe00849fbe00869fbe000000fa0069
:100af000504180000000e0004100320020168000dc
:100b00004200de006140600000c0ea006140600019
:100b10000080fb00610060004200dd0021168000c3
:100b20000120a100010070002016880060168000de
:100b30004400de006140600000c0ea0061406000e7
:100b40000080fb00610060004400dd006116800051
:100b50000140a100010070006016880090418000f3
:100b6000a141800061005000e08058009041880061
:100b7000a141880020168000680060000000e000ad
:100b800006003a00b0418000c14180006100400091
:100b9000e0804800b0418800c141880020168000f4
:100ba000680060000000e00006003200b0418000f4
:100bb000c141800061005000e0805800b0418800d1
:100bc000c141880090418000a1418000e00f5000a9
:100bd000e08f58000a003a002a28ef00c442a9001a
:100be000a086200031c3b30001487800b086200001
:100bf00021c5b30001487800a08620000304070047
:100c00008760a9000080fa004f03be004f02be00bb
:100c10004f01be004f00be003600f9000040060044
:100c20003600f800809fbe00829fbe00849fbe00f9
:100c3000869fbe000000fa003628ef003828ef003b
:100c4000604180000000e0000b0032002c28ef0023
:100c50002a28ef00c442a900a086200031c3b300b7
:100c600001487800b086200081c4b30001487800b4
:100c7000a0862000e503070087a0a9000080fa00f5
:100c80004f03be004f02be004f01be004f00be002a
:100c90003600f900004006000040da000000fe00c7
:100ca00000000500839f68000100e00002003d0095
:100cb00060001000e08018000300e00002003d002a
:100cc00060011100e0811900050007004f00e000fd
:100cd00002003b0060001000e080180000000600e9
:100ce0006022b800060220000000d0008180d200ff
:100cf0000482d2008582d2000000a00002025200cd
:100d000083825a00030031000202420083824a00bb
:100d10000000a1000603e900f3ff3a00000006000e
:020000040000fa
:100d20000000fa000080eb00601988000e04070044
:100d300044040700020307003303070063030700ae
:100d4000790307008e030700de03070011e1a90005
:100d5000f04180008000eb000001be00404b2c0001
:100d600041002000cfff07000000780060088800e5
:100d700011e1a80013e1a900004280008000eb000f
:100d80000001be00404b2c0041002000c5ff0700c1
:100d9000000078007008880013e1a8001fe1a90096
:100da000104280008000eb000001be00404b2c0090
:100db00041002000bbff070000007800d008880039
:100dc0001fe1a80001003700000000002040800063
:100dd0000000e000fcff320024000700c086200075
:100de000a1c0b30001487800d08620008040eb000d
:100df00001487800a0862000840307000428ef0043
:100e0000f2ff37000600fa00200798000000eb0010
:100e1000000f78000000eb00100798000000eb00c6
:100e2000000f78000b0037000000eb00100798005f
:100e3000030037001e0090000000e8001007980033
:100e40009e0090002e009000808f5000f9ff35002a
:100e50001e0fe800f07c20009e007800808f50007c
:100e6000f1ff34000080fa00000006000400fa00e0
:100e7000608420009040780000cdb30000c04000a6
:100e8000204798002e409000e34f50002700340088
:100e90002e409000e64f500024003c00608520006a
:100ea000c1c3b3000148780060842000104078007e
:100eb000e3405000708520000148780010002000b9
:100ec000000f78000b0037001e00e800618420004e
:100ed0009e8040001141780061852000827078007a
:100ee0001e80e80061852000e2c3b30082707800b4
:100ef0001e0fe800608420001e00400010407800b3
:100f00000004e000f0ff3a00608520005c03070069
:100f1000a0862000d1c4b30001487800b08620002c
:100f200011c4b300014878008302370060842000b8
:100f3000104078000080fb00d041880070842000c1
:100f4000104078000080fb00e04188000628ef0098
:100f50000828ef0020002000000f7800280037004c
:100f6000608420001e0040009040780000cdb30057
:100f700000c04000204798002e4090000004e00090
:100f8000030035002e409000e94f50000900340066
:100f90000628ef000828ef00a0862000d1c4b30087
:100fa00001487800b086200081c5b3000148780070
:100fb0006102370030408000414080006a09b9007a
:100fc000020178006002b900840178000301410049
:100fd000a30020000300b800010141008200780056
:100fe0002e4190000201fb00cf91de000000410085
:100ff0008180490030408800414088001e0fe80091
:10100000608420001e004000104078000004e000d2
:10101000d3ff3a0060842000104078000080fb007d
:1010200021032000810f5000b60032003103200060
:10103000810f50006301320011032000810f500026
:1010400036023a00a086200011c3b30001487800a0
:10105000708420009040780010c5b30080cf50000d
:1010600007003a000a28ef000c28ef00c402a9008c
:10107000b086200011c5b300014878002e02370069
:1010800050408000e10f50000300320060408000bb
:10109000e10f500004003a00b086200021c4b300e4
:1010a0000148780024023700708420001040780046
:1010b0000080fb0051042000810f50001c00320012
:1010c00051042000810f50000a003c00d102200092
:1010d000810f50006d00320041042000810f50004c
:1010e0000e003200b1022000810f50004d0032008e
:1010f0008000370081042000810f50001100320071
:1011000081062000810f5000210032006104200080
:10111000810f50003100320076003700ccc2a800a9
:10112000b086200041c4b3000148780002023700b5
:10113000ccc2a900b086200051c4b3000148780099
:10114000fd013700006829008109200070408800f7
:101150008140880070408000814080000000400095
:101160008180480090408800a1408800cd02a800fe
:1011700010002000604088001000200050408800cf
:10118000b086200011c4b30001487800ea0137009e
:101190000068290081092000704088008140880093
:1011a0007040800081408000000040008180480045
:1011b00090408800a1408800cd02a90010002000c6
:1011c000604088001000200050408800b086200059
:1011d00011c4b30001487800d701370030408000c7
:1011e0004140800000007800f041880011e1a90032
:1011f000f04180008000eb000001be00404b2c005d
:1012000041002000a7fe0700000078006008880069
:1012100011e1a800b086200011c4b3000148780095
:10122000c50137003040800041408000e00f500091
:10123000e08f580004003a00b086200021c5b300ba
:1012400001487800bc0137003040800041408000f8
:10125000704088008140880070408000814080009c
:10126000000040008180480090408800a140880034
:10127000cd02a9001000200050408800b086200058
:1012800011c4b30001487800ab0137003040800042
:1012900041408000e00f5000e08f580004003a0009
:1012a000b086200021c5b30001487800a2013700b4
:1012b00030408000414080007040880081408800bc
:1012c0007040800081408000000040008180480024
:1012d00090408800a1408800cd02a80010002000a6
:1012e00050408800b086200011c4b3000148780047
:1012f00091013700b086200081c5b3000148780015
:101300008d013700a086200021c3b300014878007a
:10131000708420009040780010c5b30080cf50004a
:1013200007003a001a28ef001c28ef00c422a90089
:10133000b086200011c5b300014878007e01370057
:10134000d0408000e10f500003003200e0408000f8
:10135000e10f500004003a00b086200021c4b30021
:101360000148780074013700708420001040780034
:101370000080fb0051042000810f50001c0032004f
:1013800051042000810f50000a003c00d1022000cf
:10139000810f50006d00320041042000810f500089
:1013a0000e003200b1022000810f50004d003200cb
:1013b0008000370081042000810f500011003200ae
:1013c00081062000810f50002100320061042000be
:1013d000810f50003100320076003700cd62a80046
:1013e000b086200041c4b3000148780052013700a4
:1013f000cd62a900b086200051c4b3000148780036
:101400004d0137000068290081092000f040880064
:1014100001418800f0408000014180000000400050
:10142000818048001041880021418800cd82a800b9
:1014300010002000e040880010002000d04088000c
:10144000b086200011c4b300014878003a0137008b
:101450000068290081092000f040880001418800cf
:10146000f040800001418000000040008180480081
:101470001041880021418800cd82a9001000200081
:10148000e040880010002000d0408800b086200096
:1014900011c4b300014878002701370030408000b4
:1014a00041408000000078000042880013e1a9005c
:1014b000004280008000eb000001be00404b2c0089
:1014c00041002000f7fd0700000078007008880048
:1014d00013e1a800b086200011c4b30001487800d1
:1014e000150137003040800041408000e00f50007f
:1014f000e08f580004003a00b086200021c5b300f8
:10150000014878000c0137003040800041408000e5
:10151000f040880001418800f040800001418000d7
:10152000000040008180480010418800214188006f
:10153000cd82a90010002000d0408800b086200095
:1015400011c4b30001487800fb0037003040800030
:1015500041408000e00f5000e08f580004003a0046
:10156000b086200021c5b30001487800f2003700a2
:101570003040800041408000f040880001418800f8
:10158000f040800001418000000040008180480060
:101590001041880021418800cd82a8001000200061
:1015a000d0408800b086200011c4b3000148780004
:1015b000e1003700b086200081c5b3000148780003
:1015c000dd003700a086200031c3b3000148780059
:1015d000708420009040780010c5b30080cf500088
:1015e00007003a002a28ef002c28ef00c442a90087
:1015f000b086200011c5b30001487800ce00370046
:1016000050418000e10f5000030032006041800033
:10161000e10f500004003a00b086200021c4b3005e
:1016200001487800c4003700708420001040780022
:101630000080fb0061042000810f50006400320034
:1016400061042000810f50000d003c004104200087
:10165000810f50001400320041042000810f50001f
:1016600016003c00b1022000810f50006a003200d9
:10167000d1022000810f500081003200a30037000a
:1016800091042000810f50004000320081062000ac
:10169000810f50002a00320081042000810f500089
:1016a0000b00320099003700c482a800b0862000e9
:1016b00041c4b300014878009f003700c482a900ec
:1016c000b086200051c4b300014878009a0037006a
:1016d000b0418000c1418000e00f5000e08f580011
:1016e00004003a00b086200081c4b30001487800ad
:1016f00091003700006829008109200070418800ae
:1017000081418800704180008141800000004000dc
:101710008180480090418800a1418800c462a800ef
:101720001000200060418800100020005041880017
:10173000b086200011c4b300014878007e00370055
:1017400000682900810920007041880081418800db
:10175000704180008141800000004000818048008d
:1017600090418800a1418800c462a90010002000b7
:10177000604188001000200050418800b0862000a1
:1017800011c4b300014878006b003700803e200090
:101790000100200070418800814188007041800074
:1017a0008141800000004000818048009041880015
:1017b000a1418800c462a9001000200050418800a7
:1017c000b086200011c4b300014878005a003700e9
:1017d00030408000414080000000780010428800c6
:1017e0001fe1a900104280008000eb000001be0054
:1017f000404b2c00410020002afd0700000078002b
:10180000d00888001fe1a800b086200011c4b300f2
:101810000148780048003700304080004140800097
:10182000e00f5000e08f580004003a00b08620001e
:1018300021c5b300014878003f00370030408000e8
:1018400041408000704188008141880070418000e3
:101850008141800000004000818048009041880064
:10186000a1418800c462a9001000200050418800f6
:10187000b086200011c4b300014878002e00370064
:101880003040800041408000e00f5000e08f580061
:1018900004003a00b086200021c5b300014878005a
:1018a00025003700b0418000c1418000e00f5000aa
:1018b000e08f580004003a00b086200081c4b300d5
:1018c000014878001c003700304080004140800013
:1018d0007041880081418800704180008141800012
:1018e000000040008180480090418800a1418800ac
:1018f000c462a8001000200050418800b08620007b
:1019000011c4b300014878000b003700b0862000f6
:1019100081c5b3000148780007003700a086200089
:10192000d1c4b30001487800b086200081c5b3005f
:1019300001487800000000000080fa000000060066
:101940000200fa002135800000fe2f0000806000b8
:101950000010a0002035880011368000f00f2e0006
:101960008080600000302000010070001036880088
:1019700021e2a90020a2a9002062a90040012000c4
:10198000401188000111800090ff2f00008060004e
:10199000001188002002a9009560a8004105800080
:1019a000f0ff28000080600000c0a0004005880013
:1019b00011118000f0f32f000080600010118800ea
:1019c00001118000f0cf2f0000806000001188001e
:1019d00021e2a8002342a8008560a9000000eb00d6
:1019e000000f780002003700000000001e0fe80022
:1019f000a01520009e007800808f5000faff36006e
:101a00000080fa00000006000200fa003135800074
:101a100000fe2f0000806000f000b3003035880029
:101a20007136800000fe2f00008060005000b3007f
:101a30007036880031e2a90030a2a9003062a90006
:101a400040012000c01188008111800090ff2f000c
:101a500000806000801188003002a90097c0a800b3
:101a600091058000f08f2f00008060000090a000a2
:101a70009005880091118000f0f32f000080600035
:101a80009011880081118000f0cf2f00008060004d
:101a90008011880031e2a8003342a80087c0a90065
:101aa0000000eb00000f780002003700000000008b
:101ab0001e0fe800a01520009e007800808f5000c7
:101ac000faff36000080fa00000006000000fa006d
:101ad00011e1a90010c1a90081088000f0fc2f00cd
:101ae000008060000050a000800888001021a9003c
:101af0000621ef00400020006008880031058000ca
:101b0000f0ff2800808060000000230001007000ca
:101b10003005880084e0a90094e0a80011e1a80045
:101b20000080fa00000006000000fa0013e1a9009e
:101b300012c1a90091088000f0fc2f000080600015
:101b40000050a000900888001221a9000a21ef008f
:101b500040002000700888004105800080ff2f00b1
:101b6000008060003000b300400588008500a900b7
:101b70009500a80013e1a8000080fa00000006000c
:101b80000000fa001fe1a9001ec1a900f1088000b1
:101b9000f0fc2f00008060000050a000f0088800da
:101ba0001e21a9001421ef0040002000d008880069
:101bb00081058000f0ff2800808060000000230085
:101bc00001007000800588008760a9009760a80068
:101bd0001fe1a8000080fa00000006000200fa00e1
:101be000004f78000000000011118000001020005c
:101bf000008060000000e000fbff32001e80fb0060
:101c0000201188000080fa00000006000400fa009d
:101c1000100798000000eb00000f78000500370067
:101c20001e0090001e00400010407800ebff0700ef
:101c30001e0fe8001e0090001e00400010407800bb
:101c40000004e000f6ff3a000080fa000000060001
:101c50000200fa00004f780000000000911180009f
:101c600000102000008060000000e000fbff320058
:101c70001e80fb00a01188000080fa000000060012
:101c80000400fa00100798000000eb00000f780035
:101c9000050037001e0090001e0040001040780034
:101ca000ebff07001e0fe8001e0090001e00400022
:101cb000104078000004e000f6ff3a000080fa00cf
:101cc000000006000000fa00c8e2a9008400a90094
:101cd0008200a9002105800080ff2f0000806000a5
:101ce0000010a000200588009400a800c942a900a7
:101cf00001348000f00f2e008080600000a02000e2
:101d000001007000003488008680a9008220a900ac
:101d10007105800080ff2f00008060003000b3005c
:101d2000700588009680a800c8a2a9001134800020
:101d300000fe2f00008060005000b30010348800c7
:101d400087a0a9008240a90091058000f0f82f002b
:101d5000008060000060a0009005880097a0a800a7
:101d60000080fa00000006000000fa00413a8000fe
:101d700000fc2f00008060000010a000403a8800a6
:101d8000213a8000f08f2f0000806000203a880008
:101d9000213a800000fe2f0000806000203a880079
:101da000213a8000f0f32f0000806000203a880084
:101db000313a800000e02f00808060009002200017
:101dc00001007000303a88004567a800213a800081
:101dd000f0ff280000806000203a880040a7a9009a
:101de00000000000113a8000000220000080600026
:101df0000000e000fbff32000080fa000000060057
:020000040000fa
:101e00004608000028000000000000000008000054
:101e10003a000000000000003a0800000a0000003c
:101e2000020000003000300000e80300e803e80092
:101e30000300000044080000020000000000000051
:041e4000000000009e
:020000040000fa
:101e44000000fa00c002a900c022a900c042a900f3
:101e5400c9a2a900c982a900c962a900c922a9000e
:101e6400c902a900c8c2a900c882a900c062a90009
:0c1e7400c082a9000080fa0000000600f7
:020000040000fa
:0200000401f009
:04000c00810000006f
:020000040000fa
:0200000401f009
:04001000a300000049
:020000040000fa
:0200000401f009
:040014005f00000089
:00000001FF
